{
  "contractName": "ForensicContract",
  "abi": [
    {
      "inputs": [
        {
          "internalType": "uint256",
          "name": "",
          "type": "uint256"
        }
      ],
      "name": "crime",
      "outputs": [
        {
          "internalType": "uint256",
          "name": "crime_id",
          "type": "uint256"
        },
        {
          "internalType": "string",
          "name": "exhibit_name",
          "type": "string"
        },
        {
          "internalType": "string",
          "name": "desc",
          "type": "string"
        },
        {
          "internalType": "string",
          "name": "timestamp",
          "type": "string"
        },
        {
          "internalType": "string",
          "name": "ipfsHash",
          "type": "string"
        }
      ],
      "stateMutability": "view",
      "type": "function",
      "constant": true
    },
    {
      "inputs": [
        {
          "internalType": "uint256",
          "name": "_crime_id",
          "type": "uint256"
        },
        {
          "internalType": "string",
          "name": "_exhibit_name",
          "type": "string"
        },
        {
          "internalType": "string",
          "name": "_desc",
          "type": "string"
        },
        {
          "internalType": "string",
          "name": "_timestamp",
          "type": "string"
        },
        {
          "internalType": "string",
          "name": "_ipfsHash",
          "type": "string"
        }
      ],
      "name": "addReport",
      "outputs": [],
      "stateMutability": "nonpayable",
      "type": "function"
    },
    {
      "inputs": [],
      "name": "getPatCount",
      "outputs": [
        {
          "internalType": "uint256",
          "name": "",
          "type": "uint256"
        }
      ],
      "stateMutability": "view",
      "type": "function",
      "constant": true
    },
    {
      "inputs": [
        {
          "internalType": "uint256",
          "name": "index",
          "type": "uint256"
        }
      ],
      "name": "getPat",
      "outputs": [
        {
          "internalType": "uint256",
          "name": "",
          "type": "uint256"
        },
        {
          "internalType": "string",
          "name": "",
          "type": "string"
        },
        {
          "internalType": "string",
          "name": "",
          "type": "string"
        },
        {
          "internalType": "string",
          "name": "",
          "type": "string"
        },
        {
          "internalType": "string",
          "name": "",
          "type": "string"
        }
      ],
      "stateMutability": "view",
      "type": "function",
      "constant": true
    },
    {
      "inputs": [
        {
          "internalType": "uint256",
          "name": "_crime_id",
          "type": "uint256"
        }
      ],
      "name": "getReportById",
      "outputs": [
        {
          "components": [
            {
              "internalType": "uint256",
              "name": "crime_id",
              "type": "uint256"
            },
            {
              "internalType": "string",
              "name": "exhibit_name",
              "type": "string"
            },
            {
              "internalType": "string",
              "name": "desc",
              "type": "string"
            },
            {
              "internalType": "string",
              "name": "timestamp",
              "type": "string"
            },
            {
              "internalType": "string",
              "name": "ipfsHash",
              "type": "string"
            }
          ],
          "internalType": "struct ForensicContract.CrimeDetails",
          "name": "",
          "type": "tuple"
        }
      ],
      "stateMutability": "view",
      "type": "function",
      "constant": true
    },
    {
      "inputs": [],
      "name": "getAllCrimeDetails",
      "outputs": [
        {
          "components": [
            {
              "internalType": "uint256",
              "name": "crime_id",
              "type": "uint256"
            },
            {
              "internalType": "string",
              "name": "exhibit_name",
              "type": "string"
            },
            {
              "internalType": "string",
              "name": "desc",
              "type": "string"
            },
            {
              "internalType": "string",
              "name": "timestamp",
              "type": "string"
            },
            {
              "internalType": "string",
              "name": "ipfsHash",
              "type": "string"
            }
          ],
          "internalType": "struct ForensicContract.CrimeDetails[]",
          "name": "",
          "type": "tuple[]"
        }
      ],
      "stateMutability": "view",
      "type": "function",
      "constant": true
    }
  ],
  "bytecode": "0x608060405234801561001057600080fd5b506117e5806100206000396000f3fe608060405234801561001057600080fd5b50600436106100625760003560e01c80632511e3c01461006757806345a05bfb14610085578063644f30de146100b5578063ce400377146100d3578063e4f60609146100ef578063e9a51a7714610123575b600080fd5b61006f610157565b60405161007c9190610da3565b60405180910390f35b61009f600480360381019061009a9190610dfe565b610163565b6040516100ac9190610f55565b60405180910390f35b6100bd610482565b6040516100ca91906110c4565b60405180910390f35b6100ed60048036038101906100e8919061121b565b610733565b005b61010960048036038101906101049190610dfe565b6107f0565b60405161011a959493929190611350565b60405180910390f35b61013d60048036038101906101389190610dfe565b610af5565b60405161014e959493929190611350565b60405180910390f35b60008080549050905090565b61016b610d5b565b60005b6000805490508110156104415782600082815481106101905761018f6113bf565b5b9060005260206000209060050201600001540361042e57600081815481106101bb576101ba6113bf565b5b90600052602060002090600502016040518060a0016040529081600082015481526020016001820180546101ee9061141d565b80601f016020809104026020016040519081016040528092919081815260200182805461021a9061141d565b80156102675780601f1061023c57610100808354040283529160200191610267565b820191906000526020600020905b81548152906001019060200180831161024a57829003601f168201915b505050505081526020016002820180546102809061141d565b80601f01602080910402602001604051908101604052809291908181526020018280546102ac9061141d565b80156102f95780601f106102ce576101008083540402835291602001916102f9565b820191906000526020600020905b8154815290600101906020018083116102dc57829003601f168201915b505050505081526020016003820180546103129061141d565b80601f016020809104026020016040519081016040528092919081815260200182805461033e9061141d565b801561038b5780601f106103605761010080835404028352916020019161038b565b820191906000526020600020905b81548152906001019060200180831161036e57829003601f168201915b505050505081526020016004820180546103a49061141d565b80601f01602080910402602001604051908101604052809291908181526020018280546103d09061141d565b801561041d5780601f106103f25761010080835404028352916020019161041d565b820191906000526020600020905b81548152906001019060200180831161040057829003601f168201915b50505050508152505091505061047d565b80806104399061147d565b91505061016e565b506040517f08c379a000000000000000000000000000000000000000000000000000000000815260040161047490611511565b60405180910390fd5b919050565b60606000805480602002602001604051908101604052809291908181526020016000905b8282101561072a57838290600052602060002090600502016040518060a0016040529081600082015481526020016001820180546104e39061141d565b80601f016020809104026020016040519081016040528092919081815260200182805461050f9061141d565b801561055c5780601f106105315761010080835404028352916020019161055c565b820191906000526020600020905b81548152906001019060200180831161053f57829003601f168201915b505050505081526020016002820180546105759061141d565b80601f01602080910402602001604051908101604052809291908181526020018280546105a19061141d565b80156105ee5780601f106105c3576101008083540402835291602001916105ee565b820191906000526020600020905b8154815290600101906020018083116105d157829003601f168201915b505050505081526020016003820180546106079061141d565b80601f01602080910402602001604051908101604052809291908181526020018280546106339061141d565b80156106805780601f1061065557610100808354040283529160200191610680565b820191906000526020600020905b81548152906001019060200180831161066357829003601f168201915b505050505081526020016004820180546106999061141d565b80601f01602080910402602001604051908101604052809291908181526020018280546106c59061141d565b80156107125780601f106106e757610100808354040283529160200191610712565b820191906000526020600020905b8154815290600101906020018083116106f557829003601f168201915b505050505081525050815260200190600101906104a6565b50505050905090565b60006040518060a001604052808781526020018681526020018581526020018481526020018381525090806001815401808255809150506001900390600052602060002090600502016000909190919091506000820151816000015560208201518160010190816107a491906116dd565b5060408201518160020190816107ba91906116dd565b5060608201518160030190816107d091906116dd565b5060808201518160040190816107e691906116dd565b5050505050505050565b60006060806060806000868154811061080c5761080b6113bf565b5b90600052602060002090600502016000015460008781548110610832576108316113bf565b5b906000526020600020906005020160010160008881548110610857576108566113bf565b5b90600052602060002090600502016002016000898154811061087c5761087b6113bf565b5b906000526020600020906005020160030160008a815481106108a1576108a06113bf565b5b90600052602060002090600502016004018380546108be9061141d565b80601f01602080910402602001604051908101604052809291908181526020018280546108ea9061141d565b80156109375780601f1061090c57610100808354040283529160200191610937565b820191906000526020600020905b81548152906001019060200180831161091a57829003601f168201915b5050505050935082805461094a9061141d565b80601f01602080910402602001604051908101604052809291908181526020018280546109769061141d565b80156109c35780601f10610998576101008083540402835291602001916109c3565b820191906000526020600020905b8154815290600101906020018083116109a657829003601f168201915b505050505092508180546109d69061141d565b80601f0160208091040260200160405190810160405280929190818152602001828054610a029061141d565b8015610a4f5780601f10610a2457610100808354040283529160200191610a4f565b820191906000526020600020905b815481529060010190602001808311610a3257829003601f168201915b50505050509150808054610a629061141d565b80601f0160208091040260200160405190810160405280929190818152602001828054610a8e9061141d565b8015610adb5780601f10610ab057610100808354040283529160200191610adb565b820191906000526020600020905b815481529060010190602001808311610abe57829003601f168201915b505050505090509450945094509450945091939590929450565b60008181548110610b0557600080fd5b9060005260206000209060050201600091509050806000015490806001018054610b2e9061141d565b80601f0160208091040260200160405190810160405280929190818152602001828054610b5a9061141d565b8015610ba75780601f10610b7c57610100808354040283529160200191610ba7565b820191906000526020600020905b815481529060010190602001808311610b8a57829003601f168201915b505050505090806002018054610bbc9061141d565b80601f0160208091040260200160405190810160405280929190818152602001828054610be89061141d565b8015610c355780601f10610c0a57610100808354040283529160200191610c35565b820191906000526020600020905b815481529060010190602001808311610c1857829003601f168201915b505050505090806003018054610c4a9061141d565b80601f0160208091040260200160405190810160405280929190818152602001828054610c769061141d565b8015610cc35780601f10610c9857610100808354040283529160200191610cc3565b820191906000526020600020905b815481529060010190602001808311610ca657829003601f168201915b505050505090806004018054610cd89061141d565b80601f0160208091040260200160405190810160405280929190818152602001828054610d049061141d565b8015610d515780601f10610d2657610100808354040283529160200191610d51565b820191906000526020600020905b815481529060010190602001808311610d3457829003601f168201915b5050505050905085565b6040518060a0016040528060008152602001606081526020016060815260200160608152602001606081525090565b6000819050919050565b610d9d81610d8a565b82525050565b6000602082019050610db86000830184610d94565b92915050565b6000604051905090565b600080fd5b600080fd5b610ddb81610d8a565b8114610de657600080fd5b50565b600081359050610df881610dd2565b92915050565b600060208284031215610e1457610e13610dc8565b5b6000610e2284828501610de9565b91505092915050565b610e3481610d8a565b82525050565b600081519050919050565b600082825260208201905092915050565b60005b83811015610e74578082015181840152602081019050610e59565b60008484015250505050565b6000601f19601f8301169050919050565b6000610e9c82610e3a565b610ea68185610e45565b9350610eb6818560208601610e56565b610ebf81610e80565b840191505092915050565b600060a083016000830151610ee26000860182610e2b565b5060208301518482036020860152610efa8282610e91565b91505060408301518482036040860152610f148282610e91565b91505060608301518482036060860152610f2e8282610e91565b91505060808301518482036080860152610f488282610e91565b9150508091505092915050565b60006020820190508181036000830152610f6f8184610eca565b905092915050565b600081519050919050565b600082825260208201905092915050565b6000819050602082019050919050565b600060a083016000830151610fbb6000860182610e2b565b5060208301518482036020860152610fd38282610e91565b91505060408301518482036040860152610fed8282610e91565b915050606083015184820360608601526110078282610e91565b915050608083015184820360808601526110218282610e91565b9150508091505092915050565b600061103a8383610fa3565b905092915050565b6000602082019050919050565b600061105a82610f77565b6110648185610f82565b93508360208202850161107685610f93565b8060005b858110156110b25784840389528151611093858261102e565b945061109e83611042565b925060208a0199505060018101905061107a565b50829750879550505050505092915050565b600060208201905081810360008301526110de818461104f565b905092915050565b600080fd5b600080fd5b7f4e487b7100000000000000000000000000000000000000000000000000000000600052604160045260246000fd5b61112882610e80565b810181811067ffffffffffffffff82111715611147576111466110f0565b5b80604052505050565b600061115a610dbe565b9050611166828261111f565b919050565b600067ffffffffffffffff821115611186576111856110f0565b5b61118f82610e80565b9050602081019050919050565b82818337600083830152505050565b60006111be6111b98461116b565b611150565b9050828152602081018484840111156111da576111d96110eb565b5b6111e584828561119c565b509392505050565b600082601f830112611202576112016110e6565b5b81356112128482602086016111ab565b91505092915050565b600080600080600060a0868803121561123757611236610dc8565b5b600061124588828901610de9565b955050602086013567ffffffffffffffff81111561126657611265610dcd565b5b611272888289016111ed565b945050604086013567ffffffffffffffff81111561129357611292610dcd565b5b61129f888289016111ed565b935050606086013567ffffffffffffffff8111156112c0576112bf610dcd565b5b6112cc888289016111ed565b925050608086013567ffffffffffffffff8111156112ed576112ec610dcd565b5b6112f9888289016111ed565b9150509295509295909350565b600082825260208201905092915050565b600061132282610e3a565b61132c8185611306565b935061133c818560208601610e56565b61134581610e80565b840191505092915050565b600060a0820190506113656000830188610d94565b81810360208301526113778187611317565b9050818103604083015261138b8186611317565b9050818103606083015261139f8185611317565b905081810360808301526113b38184611317565b90509695505050505050565b7f4e487b7100000000000000000000000000000000000000000000000000000000600052603260045260246000fd5b7f4e487b7100000000000000000000000000000000000000000000000000000000600052602260045260246000fd5b6000600282049050600182168061143557607f821691505b602082108103611448576114476113ee565b5b50919050565b7f4e487b7100000000000000000000000000000000000000000000000000000000600052601160045260246000fd5b600061148882610d8a565b91507fffffffffffffffffffffffffffffffffffffffffffffffffffffffffffffffff82036114ba576114b961144e565b5b600182019050919050565b7f5265706f7274206e6f7420666f756e6400000000000000000000000000000000600082015250565b60006114fb601083611306565b9150611506826114c5565b602082019050919050565b6000602082019050818103600083015261152a816114ee565b9050919050565b60008190508160005260206000209050919050565b60006020601f8301049050919050565b600082821b905092915050565b6000600883026115937fffffffffffffffffffffffffffffffffffffffffffffffffffffffffffffffff82611556565b61159d8683611556565b95508019841693508086168417925050509392505050565b6000819050919050565b60006115da6115d56115d084610d8a565b6115b5565b610d8a565b9050919050565b6000819050919050565b6115f4836115bf565b611608611600826115e1565b848454611563565b825550505050565b600090565b61161d611610565b6116288184846115eb565b505050565b5b8181101561164c57611641600082611615565b60018101905061162e565b5050565b601f8211156116915761166281611531565b61166b84611546565b8101602085101561167a578190505b61168e61168685611546565b83018261162d565b50505b505050565b600082821c905092915050565b60006116b460001984600802611696565b1980831691505092915050565b60006116cd83836116a3565b9150826002028217905092915050565b6116e682610e3a565b67ffffffffffffffff8111156116ff576116fe6110f0565b5b611709825461141d565b611714828285611650565b600060209050601f8311600181146117475760008415611735578287015190505b61173f85826116c1565b8655506117a7565b601f19841661175586611531565b60005b8281101561177d57848901518255600182019150602085019450602081019050611758565b8683101561179a5784890151611796601f8916826116a3565b8355505b6001600288020188555050505b50505050505056fea26469706673582212205c4ba1fb8c32a7950e8f8dd416fd04755ce4caabf30dd96da1b0a64a3b5d51ea64736f6c63430008130033",
  "immutableReferences": {},
  "source": "//SPDX-License-Identifier: MIT\r\npragma solidity ^0.8.0;\r\n\r\ncontract ForensicContract {\r\n    struct CrimeDetails {\r\n        uint256 crime_id;\r\n        string exhibit_name;\r\n        string desc;\r\n        string timestamp;\r\n        string ipfsHash;\r\n    }\r\n\r\n    CrimeDetails[] public crime;\r\n\r\n    function addReport(\r\n        uint256 _crime_id,\r\n        string memory _exhibit_name,\r\n        string memory _desc,\r\n        string memory _timestamp,\r\n        string memory _ipfsHash\r\n    ) public {\r\n        crime.push(\r\n            CrimeDetails(_crime_id, _exhibit_name, _desc, _timestamp, _ipfsHash)\r\n        );\r\n        // return crime.length;\r\n    }\r\n\r\n    function getPatCount() public view returns (uint256) {\r\n        return crime.length;\r\n    }\r\n\r\n    function getPat(\r\n        uint256 index\r\n    )\r\n        public\r\n        view\r\n        returns (\r\n            uint256,\r\n            string memory,\r\n            string memory,\r\n            string memory,\r\n            string memory\r\n        )\r\n    {\r\n        return (\r\n            crime[index].crime_id,\r\n            crime[index].exhibit_name,\r\n            crime[index].desc,\r\n            crime[index].timestamp,\r\n            crime[index].ipfsHash\r\n        );\r\n    }\r\n    function getReportById(uint256 _crime_id) public view returns (CrimeDetails memory) {\r\n        for (uint256 i = 0; i < crime.length; i++) {\r\n            if (crime[i].crime_id == _crime_id) {\r\n                return crime[i];\r\n            }\r\n        }\r\n        revert(\"Report not found\");\r\n    }\r\n\r\n    function getAllCrimeDetails() public view returns (CrimeDetails[] memory) {\r\n        return crime;\r\n    }\r\n\r\n    // function getPat2(uint index) public view returns(string memory, uint, string memory, string memory)\r\n    // {\r\n    //     return (crime[index].par_rem, crime[index].fee, crime[index].message, crime[index].ipfsHash);\r\n    // }\r\n}\r\n",
  "sourcePath": "C:\\Users\\ASUS\\OneDrive\\Desktop\\javascript\\React js\\criminal_records_management\\contracts\\ForensicContract.sol",
  "compiler": {
    "name": "solc",
    "version": "0.8.19+commit.7dd6d404.Emscripten.clang"
  },
  "schemaVersion": "3.4.13",
  "updatedAt": "2023-04-28T14:49:45.024Z",
  "networkType": "ethereum",
  "devdoc": {
    "kind": "dev",
    "methods": {},
    "version": 1
  },
  "userdoc": {
    "kind": "user",
    "methods": {},
    "version": 1
  }
}