{
  "contractName": "SimpleStorage",
  "abi": [
    {
      "inputs": [
        {
          "internalType": "uint256",
          "name": "",
          "type": "uint256"
        }
      ],
      "name": "crime",
      "outputs": [
        {
          "internalType": "uint256",
          "name": "crime_id",
          "type": "uint256"
        },
        {
          "internalType": "string",
          "name": "timestamp",
          "type": "string"
        },
        {
          "internalType": "string",
          "name": "offense_code",
          "type": "string"
        },
        {
          "internalType": "string",
          "name": "description",
          "type": "string"
        }
      ],
      "stateMutability": "view",
      "type": "function",
      "constant": true
    },
    {
      "inputs": [
        {
          "internalType": "uint256",
          "name": "_crime_id",
          "type": "uint256"
        },
        {
          "internalType": "string",
          "name": "_timestamp",
          "type": "string"
        },
        {
          "internalType": "string",
          "name": "_offense_code",
          "type": "string"
        },
        {
          "internalType": "string",
          "name": "_description",
          "type": "string"
        }
      ],
      "name": "addCrimeReport",
      "outputs": [
        {
          "internalType": "uint256",
          "name": "",
          "type": "uint256"
        }
      ],
      "stateMutability": "nonpayable",
      "type": "function"
    },
    {
      "inputs": [],
      "name": "getCrimeCount",
      "outputs": [
        {
          "internalType": "uint256",
          "name": "",
          "type": "uint256"
        }
      ],
      "stateMutability": "view",
      "type": "function",
      "constant": true
    },
    {
      "inputs": [
        {
          "internalType": "uint256",
          "name": "index",
          "type": "uint256"
        }
      ],
      "name": "getCrimeBlock",
      "outputs": [
        {
          "internalType": "uint256",
          "name": "",
          "type": "uint256"
        },
        {
          "internalType": "string",
          "name": "",
          "type": "string"
        },
        {
          "internalType": "string",
          "name": "",
          "type": "string"
        },
        {
          "internalType": "string",
          "name": "",
          "type": "string"
        }
      ],
      "stateMutability": "view",
      "type": "function",
      "constant": true
    },
    {
      "inputs": [],
      "name": "getAllCrimeDetails",
      "outputs": [
        {
          "components": [
            {
              "internalType": "uint256",
              "name": "crime_id",
              "type": "uint256"
            },
            {
              "internalType": "string",
              "name": "timestamp",
              "type": "string"
            },
            {
              "internalType": "string",
              "name": "offense_code",
              "type": "string"
            },
            {
              "internalType": "string",
              "name": "description",
              "type": "string"
            }
          ],
          "internalType": "struct SimpleStorage.CrimeDetails[]",
          "name": "",
          "type": "tuple[]"
        }
      ],
      "stateMutability": "view",
      "type": "function",
      "constant": true
    },
    {
      "inputs": [
        {
          "internalType": "uint256",
          "name": "_crime_id",
          "type": "uint256"
        }
      ],
      "name": "getCrimeById",
      "outputs": [
        {
          "internalType": "uint256",
          "name": "",
          "type": "uint256"
        },
        {
          "internalType": "string",
          "name": "",
          "type": "string"
        },
        {
          "internalType": "string",
          "name": "",
          "type": "string"
        },
        {
          "internalType": "string",
          "name": "",
          "type": "string"
        }
      ],
      "stateMutability": "view",
      "type": "function",
      "constant": true
    }
  ],
  "bytecode": "0x608060405234801561001057600080fd5b506114ed806100206000396000f3fe608060405234801561001057600080fd5b50600436106100625760003560e01c80633cb4c1cb14610067578063644f30de1461009a578063749b5e52146100b857806398231bc9146100eb578063e9a51a771461011b578063fdb917ed1461014e575b600080fd5b610081600480360381019061007c9190610b7c565b61016c565b6040516100919493929190610c48565b60405180910390f35b6100a26103a4565b6040516100af9190610e2e565b60405180910390f35b6100d260048036038101906100cd9190610b7c565b6105c3565b6040516100e29493929190610c48565b60405180910390f35b61010560048036038101906101009190610f85565b6108a3565b6040516101129190611040565b60405180910390f35b61013560048036038101906101309190610b7c565b61094e565b6040516101459493929190610c48565b60405180910390f35b610156610b26565b6040516101639190611040565b60405180910390f35b6000606080606060008054905085106101ba576040517f08c379a00000000000000000000000000000000000000000000000000000000081526004016101b1906110a7565b60405180910390fd5b60008086815481106101cf576101ce6110c7565b5b9060005260206000209060040201905080600001548160010182600201836003018280546101fc90611125565b80601f016020809104026020016040519081016040528092919081815260200182805461022890611125565b80156102755780601f1061024a57610100808354040283529160200191610275565b820191906000526020600020905b81548152906001019060200180831161025857829003601f168201915b5050505050925081805461028890611125565b80601f01602080910402602001604051908101604052809291908181526020018280546102b490611125565b80156103015780601f106102d657610100808354040283529160200191610301565b820191906000526020600020905b8154815290600101906020018083116102e457829003601f168201915b5050505050915080805461031490611125565b80601f016020809104026020016040519081016040528092919081815260200182805461034090611125565b801561038d5780601f106103625761010080835404028352916020019161038d565b820191906000526020600020905b81548152906001019060200180831161037057829003601f168201915b505050505090509450945094509450509193509193565b60606000805480602002602001604051908101604052809291908181526020016000905b828210156105ba57838290600052602060002090600402016040518060800160405290816000820154815260200160018201805461040590611125565b80601f016020809104026020016040519081016040528092919081815260200182805461043190611125565b801561047e5780601f106104535761010080835404028352916020019161047e565b820191906000526020600020905b81548152906001019060200180831161046157829003601f168201915b5050505050815260200160028201805461049790611125565b80601f01602080910402602001604051908101604052809291908181526020018280546104c390611125565b80156105105780601f106104e557610100808354040283529160200191610510565b820191906000526020600020905b8154815290600101906020018083116104f357829003601f168201915b5050505050815260200160038201805461052990611125565b80601f016020809104026020016040519081016040528092919081815260200182805461055590611125565b80156105a25780601f10610577576101008083540402835291602001916105a2565b820191906000526020600020905b81548152906001019060200180831161058557829003601f168201915b505050505081525050815260200190600101906103c8565b50505050905090565b6000606080606060005b6000805490508110156108605785600082815481106105ef576105ee6110c7565b5b9060005260206000209060040201600001540361084d576000818154811061061a576106196110c7565b5b906000526020600020906004020160000154600082815481106106405761063f6110c7565b5b906000526020600020906004020160010160008381548110610665576106646110c7565b5b90600052602060002090600402016002016000848154811061068a576106896110c7565b5b90600052602060002090600402016003018280546106a790611125565b80601f01602080910402602001604051908101604052809291908181526020018280546106d390611125565b80156107205780601f106106f557610100808354040283529160200191610720565b820191906000526020600020905b81548152906001019060200180831161070357829003601f168201915b5050505050925081805461073390611125565b80601f016020809104026020016040519081016040528092919081815260200182805461075f90611125565b80156107ac5780601f10610781576101008083540402835291602001916107ac565b820191906000526020600020905b81548152906001019060200180831161078f57829003601f168201915b505050505091508080546107bf90611125565b80601f01602080910402602001604051908101604052809291908181526020018280546107eb90611125565b80156108385780601f1061080d57610100808354040283529160200191610838565b820191906000526020600020905b81548152906001019060200180831161081b57829003601f168201915b5050505050905094509450945094505061089c565b808061085890611185565b9150506105cd565b506040517f08c379a000000000000000000000000000000000000000000000000000000000815260040161089390611219565b60405180910390fd5b9193509193565b600080604051806080016040528087815260200186815260200185815260200184815250908060018154018082558091505060019003906000526020600020906004020160009091909190915060008201518160000155602082015181600101908161090f91906113e5565b50604082015181600201908161092591906113e5565b50606082015181600301908161093b91906113e5565b5050506000805490509050949350505050565b6000818154811061095e57600080fd5b906000526020600020906004020160009150905080600001549080600101805461098790611125565b80601f01602080910402602001604051908101604052809291908181526020018280546109b390611125565b8015610a005780601f106109d557610100808354040283529160200191610a00565b820191906000526020600020905b8154815290600101906020018083116109e357829003601f168201915b505050505090806002018054610a1590611125565b80601f0160208091040260200160405190810160405280929190818152602001828054610a4190611125565b8015610a8e5780601f10610a6357610100808354040283529160200191610a8e565b820191906000526020600020905b815481529060010190602001808311610a7157829003601f168201915b505050505090806003018054610aa390611125565b80601f0160208091040260200160405190810160405280929190818152602001828054610acf90611125565b8015610b1c5780601f10610af157610100808354040283529160200191610b1c565b820191906000526020600020905b815481529060010190602001808311610aff57829003601f168201915b5050505050905084565b60008080549050905090565b6000604051905090565b600080fd5b600080fd5b6000819050919050565b610b5981610b46565b8114610b6457600080fd5b50565b600081359050610b7681610b50565b92915050565b600060208284031215610b9257610b91610b3c565b5b6000610ba084828501610b67565b91505092915050565b610bb281610b46565b82525050565b600081519050919050565b600082825260208201905092915050565b60005b83811015610bf2578082015181840152602081019050610bd7565b60008484015250505050565b6000601f19601f8301169050919050565b6000610c1a82610bb8565b610c248185610bc3565b9350610c34818560208601610bd4565b610c3d81610bfe565b840191505092915050565b6000608082019050610c5d6000830187610ba9565b8181036020830152610c6f8186610c0f565b90508181036040830152610c838185610c0f565b90508181036060830152610c978184610c0f565b905095945050505050565b600081519050919050565b600082825260208201905092915050565b6000819050602082019050919050565b610cd781610b46565b82525050565b600082825260208201905092915050565b6000610cf982610bb8565b610d038185610cdd565b9350610d13818560208601610bd4565b610d1c81610bfe565b840191505092915050565b6000608083016000830151610d3f6000860182610cce565b5060208301518482036020860152610d578282610cee565b91505060408301518482036040860152610d718282610cee565b91505060608301518482036060860152610d8b8282610cee565b9150508091505092915050565b6000610da48383610d27565b905092915050565b6000602082019050919050565b6000610dc482610ca2565b610dce8185610cad565b935083602082028501610de085610cbe565b8060005b85811015610e1c5784840389528151610dfd8582610d98565b9450610e0883610dac565b925060208a01995050600181019050610de4565b50829750879550505050505092915050565b60006020820190508181036000830152610e488184610db9565b905092915050565b600080fd5b600080fd5b7f4e487b7100000000000000000000000000000000000000000000000000000000600052604160045260246000fd5b610e9282610bfe565b810181811067ffffffffffffffff82111715610eb157610eb0610e5a565b5b80604052505050565b6000610ec4610b32565b9050610ed08282610e89565b919050565b600067ffffffffffffffff821115610ef057610eef610e5a565b5b610ef982610bfe565b9050602081019050919050565b82818337600083830152505050565b6000610f28610f2384610ed5565b610eba565b905082815260208101848484011115610f4457610f43610e55565b5b610f4f848285610f06565b509392505050565b600082601f830112610f6c57610f6b610e50565b5b8135610f7c848260208601610f15565b91505092915050565b60008060008060808587031215610f9f57610f9e610b3c565b5b6000610fad87828801610b67565b945050602085013567ffffffffffffffff811115610fce57610fcd610b41565b5b610fda87828801610f57565b935050604085013567ffffffffffffffff811115610ffb57610ffa610b41565b5b61100787828801610f57565b925050606085013567ffffffffffffffff81111561102857611027610b41565b5b61103487828801610f57565b91505092959194509250565b60006020820190506110556000830184610ba9565b92915050565b7f496e646578206f7574206f662072616e67650000000000000000000000000000600082015250565b6000611091601283610bc3565b915061109c8261105b565b602082019050919050565b600060208201905081810360008301526110c081611084565b9050919050565b7f4e487b7100000000000000000000000000000000000000000000000000000000600052603260045260246000fd5b7f4e487b7100000000000000000000000000000000000000000000000000000000600052602260045260246000fd5b6000600282049050600182168061113d57607f821691505b6020821081036111505761114f6110f6565b5b50919050565b7f4e487b7100000000000000000000000000000000000000000000000000000000600052601160045260246000fd5b600061119082610b46565b91507fffffffffffffffffffffffffffffffffffffffffffffffffffffffffffffffff82036111c2576111c1611156565b5b600182019050919050565b7f4372696d65206e6f7420666f756e640000000000000000000000000000000000600082015250565b6000611203600f83610bc3565b915061120e826111cd565b602082019050919050565b60006020820190508181036000830152611232816111f6565b9050919050565b60008190508160005260206000209050919050565b60006020601f8301049050919050565b600082821b905092915050565b60006008830261129b7fffffffffffffffffffffffffffffffffffffffffffffffffffffffffffffffff8261125e565b6112a5868361125e565b95508019841693508086168417925050509392505050565b6000819050919050565b60006112e26112dd6112d884610b46565b6112bd565b610b46565b9050919050565b6000819050919050565b6112fc836112c7565b611310611308826112e9565b84845461126b565b825550505050565b600090565b611325611318565b6113308184846112f3565b505050565b5b818110156113545761134960008261131d565b600181019050611336565b5050565b601f8211156113995761136a81611239565b6113738461124e565b81016020851015611382578190505b61139661138e8561124e565b830182611335565b50505b505050565b600082821c905092915050565b60006113bc6000198460080261139e565b1980831691505092915050565b60006113d583836113ab565b9150826002028217905092915050565b6113ee82610bb8565b67ffffffffffffffff81111561140757611406610e5a565b5b6114118254611125565b61141c828285611358565b600060209050601f83116001811461144f576000841561143d578287015190505b61144785826113c9565b8655506114af565b601f19841661145d86611239565b60005b8281101561148557848901518255600182019150602085019450602081019050611460565b868310156114a2578489015161149e601f8916826113ab565b8355505b6001600288020188555050505b50505050505056fea2646970667358221220b07c8b0219948c01e0dafb1658cc98a0cb1c7355229c6a9774a54f585f8a9d2064736f6c63430008130033",
  "immutableReferences": {},
  "source": "// SPDX-License-Identifier: MIT\r\npragma solidity ^0.8.0;\r\npragma abicoder v2;\r\n\r\ncontract SimpleStorage {\r\n    struct CrimeDetails {\r\n        uint256 crime_id;\r\n        string timestamp;\r\n        string offense_code;\r\n        string description;\r\n    }\r\n\r\n    CrimeDetails[] public crime;\r\n\r\n    function addCrimeReport(\r\n        uint256 _crime_id,\r\n        string memory _timestamp,\r\n        string memory _offense_code,\r\n        string memory _description\r\n    ) public returns (uint256) {\r\n        crime.push(\r\n            CrimeDetails({\r\n                crime_id: _crime_id,\r\n                timestamp: _timestamp,\r\n                offense_code: _offense_code,\r\n                description: _description\r\n            })\r\n        );\r\n        return crime.length;\r\n    }\r\n\r\n    function getCrimeCount() public view returns (uint256) {\r\n        return crime.length;\r\n    }\r\n\r\n    function getCrimeBlock(\r\n        uint256 index\r\n    )\r\n        public\r\n        view\r\n        returns (uint256, string memory, string memory, string memory)\r\n    {\r\n        require(index < crime.length, \"Index out of range\");\r\n        CrimeDetails storage tempCrime = crime[index];\r\n        return (\r\n            tempCrime.crime_id,\r\n            tempCrime.timestamp,\r\n            tempCrime.offense_code,\r\n            tempCrime.description\r\n        );\r\n    }\r\n\r\n    function getAllCrimeDetails() public view returns (CrimeDetails[] memory) {\r\n        return crime;\r\n    }\r\n\r\n    function getCrimeById(uint256 _crime_id)\r\n        public\r\n        view\r\n        returns (uint256, string memory, string memory, string memory)\r\n    {\r\n        for (uint256 i = 0; i < crime.length; i++) {\r\n            if (crime[i].crime_id == _crime_id) {\r\n                return (\r\n                    crime[i].crime_id,\r\n                    crime[i].timestamp,\r\n                    crime[i].offense_code,\r\n                    crime[i].description\r\n                );\r\n            }\r\n        }\r\n        revert(\"Crime not found\");\r\n    }\r\n}\r\n",
  "sourcePath": "C:\\Users\\ASUS\\OneDrive\\Desktop\\javascript\\React js\\criminal_records_management\\contracts\\SimpleStorage.sol",
  "compiler": {
    "name": "solc",
    "version": "0.8.19+commit.7dd6d404.Emscripten.clang"
  },
  "schemaVersion": "3.4.13",
  "updatedAt": "2023-04-28T14:49:45.015Z",
  "networkType": "ethereum",
  "devdoc": {
    "kind": "dev",
    "methods": {},
    "version": 1
  },
  "userdoc": {
    "kind": "user",
    "methods": {},
    "version": 1
  }
}